{
  "_format": "hh-sol-artifact-1",
  "contractName": "Contract",
  "sourceName": "contracts/Contract.sol",
  "abi": [
    {
      "inputs": [],
      "stateMutability": "nonpayable",
      "type": "constructor"
    },
    {
      "inputs": [
        {
          "internalType": "uint256",
          "name": "id",
          "type": "uint256"
        },
        {
          "internalType": "string",
          "name": "D",
          "type": "string"
        }
      ],
      "name": "addOperation",
      "outputs": [],
      "stateMutability": "nonpayable",
      "type": "function"
    },
    {
      "inputs": [
        {
          "internalType": "address",
          "name": "op",
          "type": "address"
        }
      ],
      "name": "addToWhitelist",
      "outputs": [],
      "stateMutability": "nonpayable",
      "type": "function"
    },
    {
      "inputs": [
        {
          "internalType": "uint256",
          "name": "id",
          "type": "uint256"
        }
      ],
      "name": "delReq",
      "outputs": [],
      "stateMutability": "nonpayable",
      "type": "function"
    },
    {
      "inputs": [],
      "name": "getOperations",
      "outputs": [
        {
          "components": [
            {
              "internalType": "uint256",
              "name": "id",
              "type": "uint256"
            },
            {
              "internalType": "string",
              "name": "data",
              "type": "string"
            },
            {
              "internalType": "uint256",
              "name": "status",
              "type": "uint256"
            }
          ],
          "internalType": "struct Contract.OperationData[]",
          "name": "",
          "type": "tuple[]"
        }
      ],
      "stateMutability": "view",
      "type": "function"
    },
    {
      "inputs": [],
      "name": "isWhiteListed",
      "outputs": [
        {
          "internalType": "bool",
          "name": "",
          "type": "bool"
        }
      ],
      "stateMutability": "view",
      "type": "function"
    },
    {
      "inputs": [
        {
          "internalType": "address",
          "name": "op",
          "type": "address"
        }
      ],
      "name": "removeFromWhitelist",
      "outputs": [],
      "stateMutability": "nonpayable",
      "type": "function"
    },
    {
      "inputs": [
        {
          "internalType": "uint256",
          "name": "id",
          "type": "uint256"
        },
        {
          "internalType": "uint256",
          "name": "s",
          "type": "uint256"
        }
      ],
      "name": "setStatus",
      "outputs": [],
      "stateMutability": "nonpayable",
      "type": "function"
    }
  ],
  "bytecode": "0x6080604052600060055534801561001557600080fd5b50600080546001600160a01b0319163390811782558152600160208190526040909120805460ff19169091179055610a45806100526000396000f3fe608060405234801561001057600080fd5b506004361061007d5760003560e01c8063c5024b531161005b578063c5024b53146100bd578063e43252d7146100d0578063ef674e66146100e3578063f948e50a1461010b57600080fd5b806317d90dd21461008257806382e40813146100975780638ab1d681146100aa575b600080fd5b61009561009036600461069f565b610120565b005b6100956100a53660046106b8565b61019a565b6100956100b83660046106da565b6101db565b6100956100cb36600461070a565b61026b565b6100956100de3660046106da565b610300565b3360009081526001602052604090205460ff1660405190151581526020015b60405180910390f35b610113610381565b6040516101029190610786565b6000546001600160a01b0316331461017f5760405162461bcd60e51b815260206004820152601f60248201527f4f6e6c79204f776e65722063616e2064656c657465205265717565737473210060448201526064015b60405180910390fd5b6000908152600660205260409020805460ff19166001179055565b3360009081526001602052604090205460ff166101c95760405162461bcd60e51b81526004016101769061083b565b60009182526004602052604090912055565b6000546001600160a01b0316331461024a5760405162461bcd60e51b815260206004820152602c60248201527f4f6e6c79204f776e65722063616e2072656d6f7665206f74686572732066726f60448201526b6d2057686974656c6973742160a01b6064820152608401610176565b6001600160a01b03166000908152600160205260409020805460ff19169055565b3360009081526001602052604090205460ff1661029a5760405162461bcd60e51b81526004016101769061083b565b6002805460018101825560009182527f405787fa12a823e0f2b7631cc41b3ba8828b3321ca811111fa75cd3aa3bb5ace0184905560058054916102dc83610872565b909155505060008381526003602052604090206102fa828483610938565b50505050565b6000546001600160a01b0316331461035a5760405162461bcd60e51b815260206004820181905260248201527f4f6e6c79204f776e65722063616e2077686974656c697374206f7468657273216044820152606401610176565b6001600160a01b03166000908152600160208190526040909120805460ff19169091179055565b3360009081526001602052604090205460609060ff166103b35760405162461bcd60e51b81526004016101769061083b565b600060055467ffffffffffffffff8111156103d0576103d0610899565b60405190808252806020026020018201604052801561042557816020015b61041260405180606001604052806000815260200160608152602001600081525090565b8152602001906001900390816103ee5790505b5090506000805b6005548110156105ce57600660006002838154811061044d5761044d6109f9565b6000918252602080832090910154835282019290925260400190205460ff166105bc5760405180606001604052806002838154811061048e5761048e6109f9565b9060005260206000200154815260200160036000600285815481106104b5576104b56109f9565b9060005260206000200154815260200190815260200160002080546104d9906108af565b80601f0160208091040260200160405190810160405280929190818152602001828054610505906108af565b80156105525780601f1061052757610100808354040283529160200191610552565b820191906000526020600020905b81548152906001019060200180831161053557829003601f168201915b505050505081526020016004600060028581548110610573576105736109f9565b90600052602060002001548152602001908152602001600020548152508383815181106105a2576105a26109f9565b602002602001018190525081806105b890610872565b9250505b806105c681610872565b91505061042c565b5060008167ffffffffffffffff8111156105ea576105ea610899565b60405190808252806020026020018201604052801561063f57816020015b61062c60405180606001604052806000815260200160608152602001600081525090565b8152602001906001900390816106085790505b50905060005b828110156106975783818151811061065f5761065f6109f9565b6020026020010151828281518110610679576106796109f9565b6020026020010181905250808061068f90610872565b915050610645565b509392505050565b6000602082840312156106b157600080fd5b5035919050565b600080604083850312156106cb57600080fd5b50508035926020909101359150565b6000602082840312156106ec57600080fd5b81356001600160a01b038116811461070357600080fd5b9392505050565b60008060006040848603121561071f57600080fd5b83359250602084013567ffffffffffffffff8082111561073e57600080fd5b818601915086601f83011261075257600080fd5b81358181111561076157600080fd5b87602082850101111561077357600080fd5b6020830194508093505050509250925092565b60006020808301818452808551808352604092508286019150828160051b8701018488016000805b8481101561082c57603f198a8503018652825160608151865289820151818b880152805180838901528592505b808310156107f9578183018c015188840160800152918b01916107db565b8781016080908101879052938b01518b890152988b0198601f01601f1916909601909101945050918701916001016107ae565b50919998505050505050505050565b60208082526018908201527f596f7520617265206e6f742077686974656c6973746564210000000000000000604082015260600190565b60006001820161089257634e487b7160e01b600052601160045260246000fd5b5060010190565b634e487b7160e01b600052604160045260246000fd5b600181811c908216806108c357607f821691505b6020821081036108e357634e487b7160e01b600052602260045260246000fd5b50919050565b601f82111561093357600081815260208120601f850160051c810160208610156109105750805b601f850160051c820191505b8181101561092f5782815560010161091c565b5050505b505050565b67ffffffffffffffff83111561095057610950610899565b6109648361095e83546108af565b836108e9565b6000601f84116001811461099857600085156109805750838201355b600019600387901b1c1916600186901b1783556109f2565b600083815260209020601f19861690835b828110156109c957868501358255602094850194600190920191016109a9565b50868210156109e65760001960f88860031b161c19848701351681555b505060018560011b0183555b5050505050565b634e487b7160e01b600052603260045260246000fdfea26469706673582212200ea79eec579085b2a13e88b03159d64280de6fbb46058c339a9f897fc317f3f064736f6c63430008110033",
  "linkReferences": {},
  "deployedLinkReferences": {}
}